:020000040800F2
:1000000000000220796B0008A5480008A7480008F6
:10001000A9480008AB480008AD48000800000000EF
:10002000000000000000000000000000AF480008D1
:10003000B148000800000000B3480008B5480008B7
:10004000CD6B0008CD6B0008CD6B0008CD6B0008B0
:10005000CD6B0008CD6B0008CD6B0008CD6B0008A0
:10006000CD6B0008CD6B0008CD6B0008CD6B000890
:10007000CD6B0008CD6B0008CD6B0008CD6B000880
:10008000CD6B0008CD6B0008CD6B0008BD480008A3
:10009000CD6B0008CD6B0008CD6B0008CD6B000860
:1000A000CD6B0008CD6B0008CD6B0008CD6B000850
:1000B000CD6B0008CD6B0008CD6B0008CD6B000840
:1000C000CD6B0008CD6B0008CD6B0008CD6B000830
:1000D000CD6B0008CD6B0008CD6B0008CD6B000820
:1000E000CD6B0008CD6B000800000000CD6B000850
:1000F000CD6B0008CD6B0008CD6B0008CD6B000800
:10010000CD6B0008CD6B0008CD6B0008CD6B0008EF
:10011000CD6B0008CD6B0008CD6B0008CD6B0008DF
:10012000CD6B0008CD6B0008CD6B0008CD6B0008CF
:10013000CD6B0008CD6B0008CD6B0008CD6B0008BF
:1001400000000000000000000000000000000000AF
:10015000CD6B0008CD6B0008CD6B0008CD6B00089F
:10016000CD6B0008CD6B0008CD6B0008CD6B00088F
:10017000CD6B0008CD6B0008CD6B0008CD6B00087F
:10018000CD6B0008CD6B0008CD6B0008CD6B00086F
:10019000CD6B0008CD6B0008CD6B0008CD6B00085F
:1001A000CD6B0008CD6B0008CD6B0008CD6B00084F
:1001B000CD6B0008CD6B0008CD6B0008CD6B00083F
:1001C000CD6B0008CD6B0008CD6B0008CD6B00082F
:1001D000CD6B0008CD480008CD6B0008CD6B000842
:1001E000CD6B0008CD6B0008CD6B0008CD6B00080F
:1001F000CD6B0008CD6B0008CD6B0008CD6B0008FF
:10020000CD6B0008CD6B0008CD6B0008CD6B0008EE
:10021000CD6B0008CD6B0008CD6B0008CD6B0008DE
:10022000CD6B0008CD6B0008CD6B0008000000000E
:10023000CD6B0008CD6B000800000000CD6B0008FE
:10024000CD6B0008CD6B0008CD6B0008CD6B0008AE
:10025000CD6B0008CD6B0008CD6B0008CD6B00089E
:10026000CD6B0008CD6B0008CD6B0008CD6B00088E
:10027000CD6B0008CD6B0008CD6B000800000000BE
:10028000CD6B0008CD6B0008CD6B000800000000AE
:0802900000000000CD6B000826
:1002A000034613F8012B002AFBD1181A01387047B6
:1002B00001F0FF01102A2BDB10F0070F08D010F817
:1002C000013B013A8B422DD010F0070F42B3F6D11B
:1002D000F0B441EA012141EA014122F007047FF034
:1002E00000070023F0E80256083C85EA010586EA8B
:1002F000010685FA47F5A3FA87F586FA47F6A5FAC7
:1003000087F68EB9EED1F0BC01F0FF0102F00702D2
:1003100032B110F8013B013A83EA010313B1F8D17D
:100320000020704701387047002D06BF354603385E
:10033000073815F0010F07D1013015F4807F02BF97
:10034000013015F4C03F0130F0BC0138704700BFE8
:1003500010B5054C237833B9044B13B10448AFF3FF
:1003600000800123237010BD500100200000000018
:100370004475000808B5034B1BB103490348AFF3AC
:10038000008008BD000000005401002044750008F2
:1003900084B0134BD3F8E02042F08002C3F8E02091
:1003A000D3F8E02002F080020192019AD3F8E02015
:1003B00042F00102C3F8E020D3F8E02002F001028D
:1003C0000292029AD3F8E02042F00802C3F8E0203B
:1003D000D3F8E03003F008030393039B04B07047A5
:1003E0000044025830B585B0002400940194029472
:1003F000039400F07BFB01238DF800308DF8014061
:1004000001941F228DF8082087228DF809208DF88D
:100410000A408DF80B408DF80C308DF80D308DF8BA
:100420000E408DF80F40684600F07EFB042000F07F
:100430006BFB05B030BD000000B587B00DF1040CBA
:10044000094C0FCCACE80F0023688CF8003001ACED
:100450002046FFF725FF81B2204605F079FB4FF4D7
:100460007A7000F0AFFAE9E7A875000800B58BB024
:100470000023079308930993009301930293039336
:1004800004930593069318484FF0804202601922A6
:100490004260836040F2E732C2600361836103F02F
:1004A000DBFFD8B900230793099307A90E4804F08E
:1004B000A9F9A8B9602300934FF4FA7301930023BC
:1004C000029304930C226946074804F03FF848B9A8
:1004D000054801F001FB0BB05DF804FBFFF7ACFF32
:1004E000FFF7AAFFFFF7A8FFC801002030B58DB0C5
:1004F0002F48304B036000238360C36001220274E5
:10050000437483744261072181612A24C4610162BA
:1005100002214162082181621024C46201634363A5
:100520008263C3630264042141648364C16404651B
:1005300041658365C36502664366816600F050FCD1
:1005400028BB06AC1C4D0FCD0FC495E8030084E812
:10055000030006AC2046FFF7A3FE81B2204605F05B
:10056000F7FA134800F03CFC98B9EC46134C0FCC5A
:10057000ACE80F0094E803008CE803006846FFF73E
:100580008FFE81B2684605F0E3FA0DB030BDFFF78B
:1005900053FF6C460A4D0FCD0FC42B68236068468D
:1005A000FFF77EFE81B2684605F0D2FAFFF744FFFE
:1005B0001402002000A00040BC750008D47500089B
:1005C000EC75000800B583B0144B40F221321A607C
:1005D0000021596099600222DA604FF000421A61EE
:1005E00059619961D9611962012300930A460C4847
:1005F00000F040FD60B90A4800F055FD50B90022F6
:100600000849074800F0E2FE30B903B05DF804FB8A
:10061000FFF712FFFFF710FFFFF70EFF7401002036
:10062000140200200100800300B59DB04C2200217F
:1006300009A806F003FB2022002101A806F0FEFA1B
:10064000022002F0E7F800230093244BDA6A22F03C
:100650000102DA62DB6A03F001030093204A936926
:1006600023F4404343F480439361936903F440438C
:100670000093009B1A4B9B6913F4005FFAD001238F
:1006800009934FF480330A930223129313930522A4
:1006900014923021159116931792189308231993E9
:1006A00000231A931B9309A802F0E6F890B93F23A0
:1006B000019303230293002303930493059306936A
:1006C00007930893022101A802F02AFD20B91DB06A
:1006D0005DF804FBFFF7B0FEFFF7AEFE0004005824
:1006E0000048025870B598B0FFF77CFE00F02AF978
:1006F000FFF79AFFFFF74CFEFFF7B8FEFFF7F6FE95
:1007000004F056FF2D4B0FCB18AC04E90F000C2161
:100710002B4803F0C7FFFFF755FF4DE0284B1B6840
:100720001C64012000F04EF90134A4B2B4F57A7FC4
:10073000F4D34FF47A7407E0214B1B681C6401204A
:1007400000F040F9013CA4B2002CF5D11D4CAB23C4
:100750002370CD2363701C4E304600F031FE0346FB
:1007600004AD1A4A4021284606F032FA2846FFF71F
:1007700097FD81B2284605F0EBF922461449304630
:1007800000F0F5FC88B1134B6C460FCB07C424F87E
:10079000023B1B0C23706846FFF782FD81B268465E
:1007A00005F0D6F9642000F00DF9102114A805F029
:1007B000CFF9642000F006F90024B7E71C760008A2
:1007C000C80100206C0100201402002000760008FF
:1007D000740100202C7600082DE9F04192B080468B
:1007E0000E4611F0010F0BD116F0007F3AD116F42E
:1007F000000F50D116F0807F5CD112B0BDE8F081BF
:10080000344B354A402100F0EDFC68B9324B9F7BF8
:1008100007F00F0700971B68304A402102A806F036
:10082000D7F9044600250CE0FFF706FE294B5B5D77
:100830002B4AC4F1400102A8204406F0C9F904443F
:100840000135AF42F2DC02AD264AC4F1400128195D
:1008500006F0BEF92846FFF723FD81B2284605F0D1
:1008600077F9C1E702AC204D0FCD0FC42B68236090
:1008700002AC2046FFF714FD81B2204605F068F96E
:10088000404600F029FC4FF47A7000F09BF8404697
:1008900000F009FCABE702AC144D0FCD0FC42B6880
:1008A000236002AC2046FFF7FBFC81B2204605F036
:1008B0004FF99FE702AC0E4D0FCD0FC42B6823609C
:1008C00002AC2046FFF7ECFC81B2204605F040F96F
:1008D00093E700BF98010020A00100203C760008AB
:1008E000587600086076000864760008787600087C
:1008F0008C760008104B1B780BB90120704710B59F
:1009000004464FF47A70B0FBF3F30C4A1068B0FB66
:10091000F3F000F0D7F868B90F2C01D901200AE0F4
:10092000002221464FF0FF3000F0B8F8044B1C6065
:10093000002000E0012010BD000000200C0000207D
:100940000400002010B5032000F096F802F0ECFA45
:100950000F498B69C3F303230E4AD35C03F01F03D3
:10096000D8408B6903F00F03D35C03F01F0320FA18
:1009700003F3094A1360094B18600F20FFF7BAFF11
:1009800010B10124204610BD044601F017F8F9E724
:1009900000440258F8760008080000200C000020EF
:1009A000034B1B78034A11680B441360704700BF68
:1009B00000000020B4020020014B1868704700BFFF
:1009C000B402002038B50446FFF7F6FF0546B4F13F
:1009D000FF3F02D0044B1B781C44FFF7EDFF401B88
:1009E000A042FAD338BD00BF00000020014B1868B8
:1009F000000C70470010005C002807DB00F01F02AD
:100A0000400901239340024A42F82030704700BF5A
:100A100000E100E0002804DB0901C9B2044B1954CD
:100A2000704700F00F000901C9B2024B195470471A
:100A300000E400E014ED00E000B500F00700C0F1B4
:100A4000070CBCF1040F28BF4FF0040C031D062B4C
:100A50000FD9C31E4FF0FF3E0EFA0CF021EA000141
:100A600099400EFA03FE22EA0E0241EA02005DF806
:100A700004FB0023EEE700000649CB6823F4E063A3
:100A80001B041B0C000200F4E0600343024A1A43FB
:100A9000CA60704700ED00E00000FA0510B504469A
:100AA000054BD868C0F30220FFF7C6FF0146204679
:100AB000FFF7B0FF10BD00BF00ED00E008B5FFF785
:100AC0009BFF08BD0138B0F1807F0BD24FF0E023CF
:100AD0005861054AF02182F823100020986107220E
:100AE0001A6170470120704700ED00E0BFF35F8F8F
:100AF000044B5A6A22F480325A620022C3F89420CE
:100B0000704700BF00ED00E040F00100054BC3F866
:100B100094005A6A42F480325A62BFF34F8FBFF397
:100B20006F8F704700ED00E04378144AC2F89830A8
:100B3000D2F8A03023F00103C2F8A0304368C2F815
:100B40009C30017BC37A1B0643EA0173817A43EA36
:100B5000C143417B43EA8143817B43EA4143C17BFB
:100B600043EA0143417A43EA0123017A43EA41031C
:100B700001780B43C2F8A030704700BF00ED00E0E1
:100B800030B4416B0468D4F884306F4A134043EAB0
:100B90008103C4F884300468D4F8843023F47F03DC
:100BA000856B43EA0543C4F88430836B0B440468C7
:100BB000D4F88810114041EA8301C4F88810046811
:100BC000D4F8881021F4FE01C56B41EA0541C4F850
:100BD0008810C16B03EB41030468D4F8A0101140E6
:100BE00041EA8301C4F8A0100468D4F8A01021F4ED
:100BF000FE01056C41EA0541C4F8A010016C446C8B
:100C000004FB01330468D4F8B010114041EA8301B9
:100C1000C4F8B0100468D4F8B01021F4FE01856C5B
:100C200041EA0541C4F8B010816CC46C04FB013387
:100C30000468D4F8AC10114041EA8301C4F8AC1048
:100C4000016D446D04FB01330468D4F8F0101140C9
:100C500041EA8301C4F8F0100468D4F8F01021F4DC
:100C60007C11856D41EA0541C4F8F010816D03EBFC
:100C700041030468D4F8C0100A4042EA8303C4F870
:100C8000C0300268D2F8C03023F47C13C16D43EA4F
:100C90000143C2F8C0300268D2F8C03023F07C5360
:100CA000016E43EA0163C2F8C030436B274A1A441D
:100CB0009200C266836B02EB83030367C16B03EB95
:100CC000C1034367016C446C04FB01F103EB810336
:100CD0008367816CC46C04FB01F103EB8103C36780
:100CE000016D446D04FB01F103EB8103C0F880301A
:100CF000816D03EBC103C0F88430816EC46D01FBCC
:100D000004FC03EB8C03C0F88830046E04FB01F193
:100D100003EB8103C0F890300D498B420DD9D0F818
:100D20009C3043F02003C0F89C30032380F89830B7
:100D3000012007E0002342F8043BD0F890309342B2
:100D4000F8D8002030BC70470300FFFF002B0010D4
:100D5000FCD3004070B54C68FCB90D698C68254324
:100D60000C6845EA84450E6ACC6944EA06648E69DB
:100D700034434E693443CE6844EA0644D0F8846074
:100D8000806E00FB03F306EB830E46F82350CEF88B
:100D900004400EF1080E002019E00C698D6825430F
:100DA0000C68254345F08045DDE702EB000C9CF81C
:100DB00003409CF802301B0443EA04639CF80140A2
:100DC00043EA0423145C23434EF8043B0430CB680D
:100DD000024CE35C8342E8D870BD00BFE8760008AF
:100DE00030B595B004464C22A04901A805F05AFF41
:100DF000002C00F0388123689D4A934220D094F85B
:100E000098300BB32268936923F010039361FFF7C6
:100E1000D3FD054623689A6912F0080F1AD0FFF730
:100E2000CBFD431B0A2BF5D9D4F89C3043F00103CA
:100E3000C4F89C30032384F89830012015B030BDED
:100E400003F580736360DAE784F89930204600F098
:100E5000C7FDD7E79A6942F001029A61FFF7ACFD3E
:100E6000054623689A6912F0010F0FD1FFF7A4FD20
:100E7000401B0A28F5D9D4F89C3043F00103C4F88C
:100E80009C30032384F898300120D7E79A6942F018
:100E900002029A61237C012B40D02268936943F0BF
:100EA00040039361637C012B3ED02268936923F455
:100EB00080439361A37C012B3CD02268936943F467
:100EC000805393612268936923F44073A1680B43B4
:100ED00093612268936923F0A403936122681369E4
:100EE00023F010031361E368012B29D0002B2CD0D1
:100EF000022B00F09B802268936943F0800393618A
:100F00002268136943F010031361E368032B1CD1BB
:100F10002268936943F02003936116E02268936985
:100F200023F040039361BDE72268936943F4804353
:100F30009361BFE72268936923F480539361C1E70B
:100F40002268936943F004039361A3695A1EE3691D
:100F5000013B1B0243EA4263226A013A134362697E
:100F6000013A216843EA0243CB61A368B3F5407FAD
:100F700062D0236E33B12268D2F8C030616E0B4369
:100F8000C2F8C030E36D226ED3420DD02168D1F893
:100F9000C83023F00703A26E14A800EB820252F8B7
:100FA0004C2C1343C1F8C830236C6BB12168D1F8C5
:100FB000BC3023F00703626C14A800EB820252F8E5
:100FC0004C2C1343C1F8BC30A36C73B12168D1F829
:100FD000BC3023F07003E26C14A800EB820252F8DC
:100FE0004C2C43EA0213C1F8BC30236D73B1216865
:100FF000D1F8BC3023F4E063626D14A800EB8202E8
:1010000052F84C2C43EA0223C1F8BC302268184B3A
:101010009A4222D00023C4F89430C4F89C300123B3
:1010200084F898302046FFF7ABFD07E72268936904
:1010300043F02003936188E7A36A013BE26A013A27
:1010400043EA0223226B013A43EA0213626A013A3D
:10105000216843EA0243CB608BE76268936823F020
:1010600003039360D6E70120E8E600BF5C75000843
:1010700000A0004090F898C0BCF1010F07D0D0F854
:101080009C3043F00403C0F89C300120704792006C
:1010900042EA011242EA43030168009A1A43C1F886
:1010A00080200020704790F89830012B07D0D0F8AE
:1010B0009C3043F00403C0F89C30012070470223A9
:1010C00080F898300268936923F00103936100234C
:1010D000C0F89C301846704790F89830022B3ED1EB
:1010E0000268936943F001039361002302689169E8
:1010F00011F0010F0ED1322B01D80133F6E7D0F8F1
:101100009C3043F00103C0F89C30032380F89830F2
:1011100001207047936923F0100393610023026854
:10112000916911F0080F0ED0322B01D80133F6E788
:10113000D0F89C3043F00103C0F89C30032380F8C2
:10114000983001207047936943F0020393610023B4
:10115000C0F89430012280F8982018467047D0F8E3
:101160009C3043F00803C0F89C300120704738B52C
:10117000044690F89830022B2BD10368D3F8C000B6
:1011800010F07C5F0CD0D3F8C40010F4001F0FD017
:10119000D4F89C3043F40073C4F89C3001201FE065
:1011A000D4F89C3043F02003C4F89C30012017E0B1
:1011B000D3F8C450C5F304452B462046FFF7CAFDBB
:1011C00022680123AB40C2F8D030C4F8943000202C
:1011D00006E0D0F89C3043F00803C0F89C300120B2
:1011E00038BD000070B590F89840022C40F0DE80C9
:1011F00040290CD041293DD0046D8C426DD8D0F8E7
:101200009C3043F02003C0F89C300120D5E00468F6
:10121000D4F8A05015F4FE0F0CD0D4F8A45015F05B
:101220007F0F0FD1D0F89C3043F48073C0F89C300E
:101230000120C2E0D0F89C3043F02003C0F89C307D
:101240000120BAE0D4F8A45015F0807504D0D4F889
:10125000A050002D0CDB0025D4F8A440C4F30524D5
:101260002544446C05FB04F4466F06EB840E3BE01A
:101270000125F1E70468D4F8B05015F4FE0F0CD046
:10128000D4F8B45015F07F0F0FD1D0F89C3043F450
:101290008073C0F89C3001208FE0D0F89C3043F080
:1012A0002003C0F89C30012087E0D4F8B45015F03A
:1012B000807504D0D4F8B050002D0CDB0025D4F894
:1012C000B440C4F305242544C46C05FB04F4866FC4
:1012D00006EB840E08E00125F1E7C56F446D01FBC4
:1012E00004F405EB840E0025DEF8004004F0804491
:1012F000546064BBDEF80040C4F38A441460DEF836
:10130000004004F000549460DEF8004004F0004413
:101310001461BEF80440D461BEF8064004F00F0426
:10132000D460DEF8044004F480145461DEF8044014
:1013300004F4001494619EF8074004F07F041462E2
:10134000DEF80440E40F54624FF0000C0CE0DEF8CD
:10135000004024F060441460D1E70EEB0C04247AC2
:1013600003F80C400CF1010C144CD668A45D6445E4
:10137000F3D8402909D041290CD01F290ED8026882
:1013800001238B40C2F8983002E00368C3F8A850EC
:10139000002012E00368C3F8B850F9E701F01F011C
:1013A000026801238B40C2F89C30F1E7D0F89C30F2
:1013B00043F00803C0F89C30012070BDE8760008B7
:1013C0000368D3F8C40000F03F00704790F89830ED
:1013D000013BDBB2012B07D9D0F89C3043F002036C
:1013E000C0F89C300120704710B403689C6D0C421B
:1013F00024D1DC6D44F00104DC6511F4007F05D0DC
:101400000468D4F8E0301343C4F8E03011F4806F7E
:1014100005D00468D4F8E4301343C4F8E43000681D
:10142000436D0C4A0A40134343650B4A536943EA30
:101430009173536100205DF8044B70479C6D31EA55
:10144000040402D00324DC65D7E7DC6D44F0020419
:10145000DC65D2E7FFFFCF3F00A800407047704730
:1014600070477047704770477047704770477047C4
:101470007047704770477047704770472DE9F04FCD
:1014800083B00446904B1A695B69134001939B0734
:10149000009303681A6D02F4704A5A6D0AEA020A50
:1014A0001A6D02F00F095A6D09EA02091A6D02F06D
:1014B000F0085A6D08EA02081E6D06F071565A6D62
:1014C00016401F6D07F060775A6D17405D6DD3F8B9
:1014D00050B015F4807F02D01BF4807F64D115F4E6
:1014E000806F02D01BF4806F67D1009B002B74D1FA
:1014F000BAF1000F7ED1B9F1000F40F08780B8F14A
:10150000000F40F08F8015F4006F03D01BF4006FC4
:1015100040F0948015F4007F03D01BF4007F40F06E
:10152000988015F4002F03D01BF4002F40F0A18009
:1015300015F4803F03D01BF4803F40F0A58015F4E4
:10154000802F03D01BF4802F40F0A98015F4003FBA
:101550000FD01BF4003F0CD023684FF400321A6503
:10156000594B00221A61D4F89C3043F08003C4F830
:101570009C30002F40F09E804EB123681E65B20F54
:10158000514B1A61D4F89C303343C4F89C30226824
:101590004E4B9A4200F09C80D4F89C30002B40F0D7
:1015A000F98003B0BDE8F08F4FF480721A65464BA6
:1015B00000221A61FFF75BFF91E72368D3F8DC1084
:1015C000D3F8E4204FF4806018653F4B0020186189
:1015D00011402046FFF747FF87E7236800221A657E
:1015E000019B03F00303384A136100992046FFF77B
:1015F00035FF7DE72368C3F850A04FEA9A72324B5B
:101600001A6151462046FFF72AFF74E72368C3F8A2
:1016100050904FEA99722C4B1A6149462046FFF7C9
:10162000DBF86CE72368C3F850804FEA9872264BCA
:101630001A6141462046FFF713FF64E723684FF421
:1016400000621A65204B00221A612046FFF709FF4D
:1016500060E72368D3F8D810D3F8E0204FF4007087
:101660001865194B0020186111402046FFF7FAFE5B
:1016700057E723684FF400221A65134B00221A61C2
:101680002046FFF7F1FE53E723684FF480321A65D6
:101690000D4B00221A612046FFF7E7FE4FE7236853
:1016A0004FF480221A65084B00221A612046FFF78A
:1016B000DDFE4BE723681F65BA0F034B1A613946FD
:1016C0002046FFF7D6FE57E700A8004000A00040E4
:1016D00063689A6812F0030F3FF45EAF196A01F075
:1016E0000F015A6A186A00F03008586A08EA0008C0
:1016F0001F6A07F4C077586A07401E6A06F4FC4662
:10170000586A06401D6A05F4F025586A0540D3F86A
:101710002490D3F820A011401CD1B8F1000F1ED1A5
:1017200019F0400F02D01AF0400F20D15FBB36B144
:1017300063681E62D4F89C303343C4F89C30002D9B
:101740003FF42AAF63681D62D4F89C302B43C4F881
:101750009C3021E719622046FFF78CFEDDE76368C5
:10176000C3F8208041462046FFF785FED8E763682E
:10177000D96BDA6B4020186202F03F02090C204658
:10178000FFF77AFED2E763681F6239462046FFF70B
:1017900074FECCE72046FFF76BFE02E7F0B583B09E
:1017A00000236BE085685E000324B44025EA04054D
:1017B000CC68B4402C438460456825EA0C054C682D
:1017C000C4F300149C402C43446069E0DD080835F4
:1017D00050F8254003F0070C4FEA8C0C4FF00F0E29
:1017E0000EFA0CFE24EA0E0E0C6904FA0CF444EA1C
:1017F0000E0440F825406BE0092400E0002404FAC0
:101800000EF42C430CF1020C694D45F82C404FF0BE
:10181000B0442568D44325EA02064F6817F4801FB8
:1018200001D042EA05064FF0B0452E606D6804EA2B
:1018300005064F6817F4001F01D042EA05064FF075
:10184000B0456E60D5F8845004EA05064F6817F479
:10185000003F01D042EA05064FF0B045C5F884606C
:10186000D5F880502C404E6816F4803F01D042EAF3
:1018700005044FF0B042C2F8804001330A6832FAE2
:1018800003F400F092804FF0010C0CFA03FC1CEA08
:101890000202F2D04C6804F00304013C012C81D90F
:1018A0004C6804F00304032C0CD0C4685D004FF0B6
:1018B000030C0CFA05FC24EA0C0C8C68AC4044EADE
:1018C0000C04C4604C6804F00304022C3FF47EAFA7
:1018D00004684FEA430E4FF0030C0CFA0EFC24EAA6
:1018E0000C0C4C6804F0030404FA0EF444EA0C04F3
:1018F00004604C6814F4403FBFD02E4CD4F8F45030
:1019000045F00205C4F8F450D4F8F44004F00204A1
:101910000194019C4FEA930C0CF10205244C54F8FD
:10192000255003F0030E4FEA8E0E0F2404FA0EF436
:1019300025EA0405204CA0423FF460AF04F5806422
:10194000A04222D004F58064A04220D004F5806437
:10195000A0421ED004F58064A0421CD004F580642F
:10196000A0421AD004F58064A04218D004F5806427
:10197000A04216D004F58064A04214D004F580641F
:10198000A0423FF439AF0A2439E7012437E70224A3
:1019900035E7032433E7042431E705242FE7062441
:1019A0002DE707242BE7082429E703B0F0BD00BF8B
:1019B00000040058004402580000025882B0074B4F
:1019C000D3F8F42042F00202C3F8F420D3F8F43044
:1019D00003F002030193019B02B0704700440258D8
:1019E00010B5B8B004460021339134913591369149
:1019F0003791C02202A805F021F92268274B9A42AC
:101A000001D038B010BD4FF400420023CDE90223CD
:101A1000022304930C220592069303220792089353
:101A2000C023099320230A934FF000531E9302A86A
:101A300001F0EAFD70BB1A4BD3F8EC2042F480723F
:101A4000C3F8EC20D3F8EC2002F480720092009AE4
:101A5000D3F8E02042F00802C3F8E020D3F8E030E9
:101A600003F008030193019B032333930223349370
:101A70000024359436940923379333A90948FFF796
:101A80008DFE224621461320FFF708F81320FFF7AA
:101A900015F8B6E7FEF7D0FCCDE700BF00A0004088
:101AA00000440258000C02580368B3F1804F00D084
:101AB000704782B0074BD3F8E82042F00102C3F828
:101AC000E820D3F8E83003F001030193019B02B052
:101AD000704700BF0044025800B587B0002301934F
:101AE00002930393049305930368B3F1804F02D0EC
:101AF00007B05DF804FB0C4BD3F8E02042F0010284
:101B0000C3F8E020D3F8E03003F001030093009B1A
:101B100008230193022302930123059301A903489B
:101B2000FFF73CFEE4E700BF004402580000025803
:101B30002DE9F04383B0D0F8008001EBC10300EB46
:101B400083039A6A5B6A9A4254D807460C469B1AEA
:101B500001EBC10200EB8202D2699A4200D31A461D
:101B600002F103094FEA990915E006F103094FEA6A
:101B70009909BB7904EBC40507EB8505296A009335
:101B8000B3B2E2B2404603F0E4F92B6A33442B626D
:101B9000AB6A3344AB6208EB441303F510639B69F3
:101BA0009BB24B4512D304EBC40307EB83039A6A41
:101BB0005B6A9A420AD24BB19B1A04EBC40207EB50
:101BC0008202D6699E42D0D31E46CEE704EBC40300
:101BD00007EB83077A6ABB6A9A420FD804F00F04B6
:101BE0000122A240D8F8343823EA0203C8F8343876
:101BF000002000E0012003B0BDE8F0830020FAE7F8
:101C000030B583B000287AD0044690F89534ABB153
:101C1000032384F89534206802F050FF237C8DF86C
:101C20000030231D0ECB206802F07EFE58B1022347
:101C300084F895340125284603B030BD80F89434EB
:101C400003F09CFFE4E70021206803F098FB0246C4
:101C5000B8B903462079984218D903EBC30104EBC5
:101C60008101012048750B75CB8500200876C8617D
:101C7000086203EBC30104EB810148620133DBB26C
:101C8000E8E7022384F895340125D4E7904217D978
:101C900002EBC20304EB8303002183F8551283F89F
:101CA000542283F85812C3F85C12C3F8601202EB96
:101CB000C20304EB8303C3F864120132D2B2E5E736
:101CC000237C8DF80030231D0ECB206802F04CFFE2
:101CD000054658B900236374012384F89534237BA7
:101CE000012B08D0206803F009FBA4E7022384F845
:101CF000953401259FE7204600F076FDF2E70125A7
:101D000099E7036890F89424012A1AD010B5044684
:101D1000012280F89424DA6812F0400F02D0427B4E
:101D2000012A09D0206802F0C3FE206803F0D8FA27
:101D3000002084F8940410BD9A6B42F480329A63B8
:101D4000F0E702207047000070B504460D460068B9
:101D5000066C00EB411303F530639A68A179012901
:101D600011D038498E4256D03DB905EBC50304EB7E
:101D70008303D3F86432002B5ED0E9B2204603F02F
:101D80005FFF002070BD12F0080F09D02E498E426F
:101D9000F7D912F4004FF4D04FF400429A60F0E704
:101DA00012F0200F02D020229A60EAE712F0280FEA
:101DB000E7D125498E4206D912F4004F03D04FF4E3
:101DC00000429A60DDE705EBC50204EB8202D2F81F
:101DD00074121B69C3F31203CB1AC2F868327DB9BF
:101DE00005EBC50204EB8202D2F864226AB105EB6E
:101DF000C50204EB8202D2F860121944C2F86012E4
:101E0000E9B2204603F01CFFBBE704F29C4201212B
:101E100003F0F4FAF4E712F4004F03D04FF4004259
:101E20009A60AEE712F0200F01D020229A60E9B24A
:101E3000204603F005FFA4E704F29C42002103F0D2
:101E4000DDFA9AE70A31544F0A30544F38B5044648
:101E500003681D6C03EB4113D3F8081B0E4A95422F
:101E600007D903F5306311F4004F02D04FF400425C
:101E70009A60204603F0DCFE074B9D4202D9A3790D
:101E8000012B01D0002038BD04F29C4201212068C2
:101E900003F0B4FAF6E700BF0A30544F90F89434D8
:101EA000012B0CD010B50446012380F89434417402
:101EB000006803F005FA002084F8940410BD0220A5
:101EC000704738B505468C4611F0800F2BD101F0D4
:101ED0000F0E0EEBCE04A40004F514740444211D6F
:101EE0000EEBCE0E00EB8E0E00208EF855020CF09D
:101EF0000F0C81F800C0C2F30A028A600B714A78A5
:101F00000AB1A1F81AC0022B1CD095F89434012B09
:101F10001BD0012385F89434286802F0FFFE0020CE
:101F200085F8940438BD01F00F0000EBC001890072
:101F300010312944043100EBC00005EB800001247E
:101F40004475D4E700234B71DFE70220EAE710B5C0
:101F500004460A4611F0800F20D101F00F0000EB7B
:101F6000C0039B0003F514732344191D00EBC0004C
:101F700004EB8000002380F8553202F00F020A7053
:101F800094F89434012B18D0012384F894342068F9
:101F900002F010FF002084F8940410BD01F00F003F
:101FA00000EBC0039B0010332344191D00EBC0005D
:101FB00004EB800001234375DFE70220EDE710B555
:101FC000144601F00F0C0CEBCC01890001F51471E3
:101FD000014404310CEBCC0E00EB8E0ECEF86022E7
:101FE000CEF864320023CEF868328EF855328EF87F
:101FF00054C28279012A04D0006802F0C1FF002097
:1020000010BDCEF87042F7E701F00F0101EBC101FE
:1020100000EB8100D0F86802704710B5144601F05B
:102020000F0C0CEBCC0189001031014404310CEB96
:10203000CC0E00EB8E0ECEF82020CEF824300023FC
:10204000CEF8283001238EF815308EF814C082792E
:102050009A4204D0006802F093FF002010BDCEF831
:102060003040F7E738B501F00F050279AA4238D3BE
:1020700004460B4611F0800F1FD101EBC10189000E
:1020800001F514710144043103EBC30300EB830336
:10209000002283F8552201238B700D7094F894343C
:1020A000012B20D0012384F89434206803F0ADF88C
:1020B00085B1002084F8940438BD05EBC501890082
:1020C00010310144043105EBC50300EB8303012209
:1020D0005A75E0E704F29C42A179206803F08EF97A
:1020E000E7E70120E8E70220E6E701F00F030279C5
:1020F0009A4230D310B5044611F0800F1ED103EB85
:10210000C301890001F514710144043103EBC302DA
:1021100000EB8202002082F8550200228A700B70C8
:1021200094F89434012B18D0012384F89434206857
:1021300003F098F8002084F8940410BD03EBC30169
:10214000890010310144043103EBC30200EB820229
:1021500001205075E1E7012070470220EDE708B546
:1021600011F0800F0CD101F00F0101EBC1018900CA
:1021700001F5147101440431006802F08BFE08BDC2
:1021800001F00F0101EBC10189001031014404315C
:10219000F2E72DE9F04F83B004460568284603F0C6
:1021A000EAF810B103B0BDE8F08F0646206803F0EE
:1021B000B3F80028F6D005F50067BB68C3F30D231C
:1021C000C4F8D434206803F0A7F810F0020F04D04C
:1021D0002268536903F002035361206803F09CF8FE
:1021E00010F0100F16D02268936923F0100393614A
:1021F000D5F8208008F00F0908F4F013B3F5802F0C
:102200006AD0B3F5402F00F08D802268936943F0C7
:1022100010039361206803F07FF810F4002F40F062
:102220009380206803F078F810F4802F40F0FC8051
:10223000206803F071F80028C0F27D81206803F067
:102240006BF810F4006F09D0BB6813F0010F40F079
:102250008A812268536903F400635361206803F0A4
:102260005BF810F0006F15D02268536903F000632B
:10227000536194F8CC34002B40F07981012184F82B
:10228000CC1423685B6DC3F38303C4F8D0342046B9
:1022900000F0BEFA206803F03FF810F4805F40F0D1
:1022A0006A81206803F038F810F4005F40F0B681CE
:1022B000206803F031F810F0080F40F0C781206863
:1022C00003F02AF810F0800F00F0DA81AB6923F0F8
:1022D0008003AB610126C3E147F6F07318EA030FF0
:1022E00093D04FEA181A4FEAC903019309EBC90BBF
:1022F00004EB8B0BC8F30A12DBF86012284602F0DD
:1023000061FFDBF86032CAF30A0A5344CBF860324B
:10231000DBF86832019A4A4404EB82025344C2F863
:10232000683272E7082204F29C41284602F04AFF14
:1023300009EBC90304EB8303D3F86822C8F30A1836
:102340004244C3F8682260E7206802F0E9FF804653
:10235000B14635E005EB49130122C3F8082B494685
:102360002046FFF7F1FC3CE005EB49130822C3F8D7
:10237000082B49462046FFF769FD35E009EBC90304
:1023800004EB830393F85732012B41D005EB49133B
:102390000222C3F8082B1AF0200F04D005EB4913D2
:1023A0002022C3F8082B1AF4005F05D005EB49136F
:1023B0004FF40052C3F8082B09F101094FEA5808FD
:1023C000B8F1000F3FF42DAF18F0010FF4D05FFA11
:1023D00089FB5946206802F0B3FF824610F0010FD6
:1023E000B8D11AF0080FBFD11AF0100F04D005EBC6
:1023F00049131022C3F8082B1AF0020FCBD06B69D7
:1024000013F0800FBAD07B6843F480637B60B5E73C
:1024100009EBC90304EB8303002283F857225946D2
:10242000204603F05DFCB1E7206802F081FF8046A2
:10243000B14625E05946204603F00EFC1AF0080F7D
:1024400004D005EB49130822C3F808291AF0100F2D
:1024500004D005EB49131022C3F808291AF0400FE5
:1024600004D005EB49134022C3F808291AF0020FE3
:1024700040D11AF0800F59D109F101094FEA5808EB
:10248000B8F1000F3FF4D4AE18F0010FF4D05FFAAA
:1024900089FB5946206802F05CFF824610F0010F6C
:1024A000CCD009F00F02012101FA02F27B6B23EA82
:1024B00002037B6305EB4913C3F80819A3798B4228
:1024C000B8D109EBC90304EB83031A6AD9690A443A
:1024D0001A62B9F1000FADD109EBC90304EB830314
:1024E0005B6A002BA6D104F29C420121206802F015
:1024F00085FF9FE74946284602F0E6FA09EBC90343
:1025000004EB8303DB7D012B05D005EB491302228D
:10251000C3F80829ADE709EBC90304EB83030022E4
:10252000DA755946204603F0E1FBEEE749462046BE
:10253000FFF7FEFAA0E77B6823F001037B6094F8C5
:10254000CC34012B08D0204603F0C4FB2268536929
:1025500003F00043536171E6002184F8CC14204657
:1025600000F056F9F2E7204603F09CFB71E62046A6
:1025700003F098FB8EE67B6823F001037B6010215B
:10258000206802F0A1FA1AE005EB46134FF67F31FE
:10259000C3F80819D3F8002922F40012C3F800295F
:1025A000C3F8081BD3F8002B22F40012C3F8002B49
:1025B000D3F8002B42F00062C3F8002B01362379D8
:1025C000B342E1D8FB6943F00113FB61E37BDBB16C
:1025D000D7F8843043F00B03C7F884307B6C43F0AA
:1025E0000B037B64D5F8003823F4FE63C5F800388C
:1025F00004F29C42A179206802F000FF226853692E
:1026000003F4805353614CE67A6942F22B0313437F
:102610007B613B6943F00B033B61E3E7206802F019
:10262000DFFE206802F068FBE071266800F0C2FE61
:102630000146E279304602F0C9F9204603F01DFB5D
:102640002268536903F40053536131E6204603F0D6
:102650000EFB2268536903F0080353612FE601362D
:102660002379B3420CD906EBC60304EB830393F83A
:102670005732012BF3D1F1B22046FFF770FDEEE7A0
:10268000206802F049FE10F4801F25D1206802F076
:1026900043FE10F4001F58D0012326E001362379B1
:1026A000B3421BD905EB4613D3F8002906EBC6034A
:1026B00004EB83031B7E012BF0D1002AEEDA06EB3C
:1026C000C60304EB83030122DA7566F07F01C9B209
:1026D0002046FFF744FDE1E70126E0E72268536961
:1026E00003F480135361D1E7013322799A4227D949
:1026F00005EB4312D2F8001B03EBC30204EB82028A
:1027000092F85822012AEFD10029EDDAD4F8D42426
:1027100082EA114212F0010FE6D103EBC30204EB8F
:102720008202012182F85712AA6942F08002AA614E
:102730006A6912F0800FD7D17B6843F400737B6025
:102740002268536903F400135361206802F0E4FD2A
:1027500010F0804F10D1206802F0DEFD10F0040F61
:102760003FF420AD23685D6815F0040F0DD1226899
:1027700053682B43536015E5204603F0BDFA2268E9
:10278000536903F080435361E5E7204603F0BAFA4A
:10279000EDE710B40468606A31B940EA0240A06213
:1027A00000205DF8044B70478C46A36A00EB134091
:1027B000002308E003F1400104EB8101496800EBCC
:1027C00011400133DBB20CF1FF318B42F2D340EA0E
:1027D00002400CF13F0104EB81046060E0E7036814
:1027E0005962002070470000034602680121C0F8CA
:1027F000D814002083F8CC04936943F000639361FC
:10280000516D024B0B435365704700BF030000102E
:1028100070470000134BDB6813F0040F07D1114B16
:10282000DB6803F0070383421AD00120704710B51C
:102830000C4AD36823F007030343D360FEF7BCF8C8
:102840000446084B5B6813F4005F07D1FEF7B4F849
:10285000001BB0F57A7FF4D9012000E0002010BD04
:102860000020704700480258024AD36843F0807342
:10287000D360704700480258002800F0398338B50B
:102880000446036813F0010F25D0944A136903F03E
:102890003803926A102B15D0182B0FD06368B3F54C
:1028A000803F3FD0002B53D18C4B1A6822F48032EA
:1028B0001A601A6822F480221A6038E002F00302DB
:1028C000022AEBD1854B1B6813F4003F03D06368E9
:1028D000002B00F00F83236813F0020F00F0A1809B
:1028E0007E4A1369926A13F038035AD0182B55D0D8
:1028F000E368002B00F0DE8078490A6822F01902B4
:1029000013430B60FEF758F80546744B1B6813F031
:10291000040F40F0AD80FEF74FF8401B0228F4D9B9
:102920000320EEE26D4A136843F48033136063685A
:102930002BB3FEF741F80546684B1B6813F4003FC4
:10294000C9D1FEF739F8401B6428F5D90320D8E235
:10295000B3F5A02F09D0614B1A6822F480321A60B7
:102960001A6822F480221A60E1E75C4B1A6842F48C
:1029700080221A601A6842F480321A60D7E7FEF7A4
:102980001BF80546554B1B6813F4003FA3D0FEF718
:1029900013F8401B6428F5D90320B2E212F0030FAC
:1029A000A6D14E4B1B6813F0040F03D0E368002B35
:1029B00000F0A282494A136823F01903E1680B432F
:1029C0001360FDF7F9FF0546444B1B6813F0040F35
:1029D00006D1FDF7F1FF401B0228F5D9032090E254
:1029E000FEF704F841F20303984212D82269402A04
:1029F00007D03A494B6823F47C3343EA02334B60F7
:102A00000FE0364A536823F47C3343F400335360B9
:102A100007E0324A536823F0FE43216943EA016329
:102A20005360236813F0100F00F088802B4A13695D
:102A300003F03803926A082B56D0182B50D0E36964
:102A4000002B00F0B880254A136843F08003136020
:102A5000FDF7B2FF0546214B1B6813F4807F40F061
:102A60008880FDF7A9FF401B0228F4D9032048E223
:102A7000FDF7BCFF41F20303984212D82269402AB5
:102A800007D016494B6823F47C3343EA02334B608A
:102A9000C7E7124A536823F47C3343F4003353608E
:102AA000BFE70E4A536823F0FE43216943EA0163FE
:102AB0005360B6E7094A136823F001031360FDF77A
:102AC0007BFF0546054B1B6813F0040FA9D0FDF7EB
:102AD00073FF401B0228F5D9032012E2004402587C
:102AE00002F00302012AAAD1A14B1B6813F4807FD4
:102AF00003D0E369802B40F00182FDF777FF41F2BC
:102B00000303984212D8226A202A07D098494B68BA
:102B100023F0F84343EA82634B600FE0944A536822
:102B200023F0F84343F08043536007E0904AD368B2
:102B300023F07C53216A43EA0163D360236813F0D6
:102B4000080F60D06369002B49D0894A536F43F066
:102B500001035367FDF730FF0546854B5B6F13F0AC
:102B6000020F50D1FDF728FF401B0228F5D90320A2
:102B7000C7E1FDF73BFF41F20303984212D8226AF6
:102B8000202A07D07A494B6823F0F84343EA82634E
:102B90004B60D3E7764A536823F0F84343F0804311
:102BA0005360CBE7724AD36823F07C53216A43EA2F
:102BB0000163D360C2E76E4A136823F08003136099
:102BC000FDF7FAFE05466A4B1B6813F4807FB5D00B
:102BD000FDF7F2FE401B0228F5D9032091E1644A7B
:102BE000536F23F001035367FDF7E6FE0546604B84
:102BF0005B6F13F0020F06D0FDF7DEFE401B0228CC
:102C0000F5D903207DE1236813F0200F29D0A369B3
:102C10009BB1574A136843F480531360FDF7CCFE11
:102C20000546534B1B6813F4005F1AD1FDF7C4FE31
:102C3000401B0228F5D9032063E14D4A136823F4B1
:102C400080531360FDF7B8FE0546494B1B6813F42B
:102C5000005F06D0FDF7B0FE401B0228F5D9032027
:102C60004FE1236813F0040F21D1636A002B00F0B9
:102C700047813F4A126902F03802182A00F0EE80BC
:102C8000022B79D03A4A136823F080731360FDF762
:102C900093FE0446364B1B6813F0007F00F0DC8087
:102CA000FDF78AFE001B0228F4D9032029E1314AEE
:102CB000136843F480731360FDF77EFE05462D4BC9
:102CC0001B6813F4807F06D1FDF776FE401B642855
:102CD000F5D9032015E1A368012B0AD00BBB244BC7
:102CE0001A6F22F001021A671A6F22F004021A67A3
:102CF00004E01F4A136F43F001031367A36833B363
:102D0000FDF75AFE05461A4B1B6F13F0020FACD1AC
:102D1000FDF752FE401B41F288339842F3D903205D
:102D2000EFE0052B09D0124B1A6F22F001021A674F
:102D30001A6F22F004021A67E0E70D4B1A6F42F097
:102D400004021A671A6F42F001021A67D6E7FDF70C
:102D500033FE0546064B1B6F13F0020F85D0FDF7BF
:102D60002BFE401B41F288339842F3D90320C8E080
:102D70000044025800480258694A136823F08073DF
:102D80001360FDF719FE0546654B1B6813F0007FC5
:102D900006D0FDF711FE401B0228F5D90320B0E054
:102DA0005F4B996A5F4A0A40A16AE06A41EA0011F2
:102DB0000A439A62226B013AC2F30802616B01393D
:102DC000490289B20A43A16B0139090401F4FE01E9
:102DD0000A43E16B0139090601F0FE410A431A6317
:102DE000DA6A22F00102DA625A6B6FF3CF02A16C49
:102DF00042EAC1025A63DA6A22F00C02216C0A43E9
:102E0000DA62DA6A22F00202616C0A43DA62DA6A92
:102E100042F48032DA62DA6A42F40032DA62DA6A62
:102E200042F48022DA62DA6A42F00102DA621A6857
:102E300042F080721A60FDF7BFFD0446384B1B68F4
:102E400013F0007F06D1FDF7B7FD001B0228F5D96E
:102E5000032056E0002054E0002052E0304A916AFE
:102E6000106B012B4ED001F00303A26A93424BD1A9
:102E7000C1F30511E36A994248D1C0F30802236BFC
:102E8000013B9A4244D1C0F34622636B013B9A4214
:102E900040D1C0F30642A36B013B9A423CD1C0F340
:102EA0000660E36B013B984238D11D4B5B6BC3F36B
:102EB000CC03A26C9A4201D1002022E0184AD36AC6
:102EC00023F00103D362FDF777FD0546FDF774FD9E
:102ED000A842FBD0124A536B6FF3CF03A16C43EAB5
:102EE000C1035363D36A43F00103D362002008E0B7
:102EF00001207047012004E0012002E0012000E0F1
:102F0000002038BD0120FCE70120FAE70120F8E7A6
:102F10000120F6E70120F4E70120F2E70120F0E7C5
:102F2000004402580CFCFFFF754B1B6903F038038B
:102F3000102B00F0DE80182B0FD0002B40F0DB8030
:102F40006F4B1B6813F0200F00F0D7806C4B1B6891
:102F5000C3F3C1036B48D840704710B4684B9A6AFA
:102F600002F003029C6AC4F30510D96A01F0010162
:102F70005B6BC3F3CC0301FB03F307EE903AF8EE6F
:102F8000677A14F47C7F77D0012A4AD0022A76D05F
:102F9000002A40F091805A4B1B6813F0200F23D079
:102FA00057490A68C2F3C102564BD34007EE103AA4
:102FB000F8EE476A07EE100AB8EE476A86EE867AA0
:102FC0000B6BC3F3080306EE903AF8EE666A9FEDCA
:102FD0004E6A67EE867A76EEA77AF7EE006A77EEAB
:102FE000A67A27EE277A38E007EE100AF8EE476A4D
:102FF0009FED466A86EE267A414B1B6BC3F30803AE
:1030000006EE903AF8EE666A9FED3F6A67EE867AC2
:1030100076EEA77AF7EE006A77EEA67A27EE277AA1
:103020001BE007EE100AF8EE476A9FED396A86EE5C
:10303000267A334B1B6BC3F3080306EE903AF8EE87
:10304000666A9FED316A67EE867A76EEA77AF7EECA
:10305000006A77EEA67A27EE277A294B1B6BC3F31B
:103060004623013307EE903AF8EE677AC7EE276AF7
:10307000FCEEE67A17EE900A5DF8044B704707EE17
:10308000100AF8EE476A9FED236A86EE267A1C4BFB
:103090001B6BC3F3080306EE903AF8EE666A9FEDE9
:1030A0001A6A67EE867A76EEA77AF7EE006A77EE0E
:1030B000A67A27EE277AD0E707EE100AF8EE476ADD
:1030C0009FED136A86EE267A0D4B1B6BC3F3080344
:1030D00006EE903AF8EE666A9FED0B6A67EE867A26
:1030E00076EEA77AF7EE006A77EEA67A27EE277AD1
:1030F000B3E709487047094870470248704700BF66
:10310000004402580090D003000000390024744CA1
:103110000024744A20BCBE4B40787D0100093D006C
:10312000002800F0328170B50D4604469B4B1B68A9
:1031300003F00F038B420BD2984A136823F00F035E
:103140000B431360136803F00F038B4240F01F81A1
:10315000236813F0040F0CD02269914B9B6903F094
:1031600070039A4205D98E498B6923F070031A4384
:103170008A61236813F0080F0CD06269884BDB6901
:1031800003F070039A4205D98549CB6923F0700397
:103190001A43CA61236813F0100F0CD0A269804B48
:1031A000DB6903F4E0639A4205D97D49CB6923F4D6
:1031B000E0631A43CA61236813F0200F0CD0E26960
:1031C000774B1B6A03F070039A4205D974490B6A66
:1031D00023F070031A430A62236813F0020F0CD025
:1031E000E2686F4B9B6903F00F039A4205D96C4963
:1031F0008B6923F00F031A438A61236813F0010FD0
:1032000041D0674A936923F47063A1680B439361CB
:103210006368022B0AD0032B27D0012B2CD0604AE5
:10322000126812F0040F06D10120ADE0126812F40A
:10323000003F00F0AE805A490A6922F007021343AA
:103240000B61FDF7B9FB0646554B1B6903F03803CC
:103250006268B3EBC20F16D0FDF7AEFB801B41F2E4
:1032600088339842F0D903208EE04D4A126812F05C
:10327000007FE0D1012087E0494A126812F4807F84
:10328000D9D1012080E0236813F0020F0CD0E2684E
:10329000434B9B6903F00F039A4205D240498B6967
:1032A00023F00F031A438A613C4B1B6803F00F03A2
:1032B000AB420AD9394A136823F00F032B4313603A
:1032C000136803F00F03AB4265D1236813F0040FBA
:1032D0000CD02269324B9B6903F070039A4205D2ED
:1032E0002F498B6923F070031A438A61236813F016
:1032F000080F0CD062692A4BDB6903F070039A4215
:1033000005D22749CB6923F070031A43CA612368A9
:1033100013F0100F0CD0A269214BDB6903F4E063BA
:103320009A4205D21E49CB6923F4E0631A43CA616D
:10333000236813F0200F0CD0E269194B1B6A03F0CD
:1033400070039A4205D216490B6A23F070031A43A0
:103350000A62FFF7E9FD12498B69C3F30323114A9F
:10336000D35C03F01F03D8408B6903F00F03D35CD9
:1033700003F01F0320FA03F30B4A13600B4B186092
:103380000B4B1868FDF7B6FA70BD0120704701209D
:10339000FAE70120F8E70120F6E700BF002000521D
:1033A00000440258F8760008080000200C000020B5
:1033B0000400002008B5FFF7B7FD0B4A9369C3F37B
:1033C00003230A49CB5C03F01F0320FA03F392693D
:1033D00002F00F02885C00F01F0023FA00F0044A9C
:1033E0001060044A136008BD00440258F8760008D3
:1033F000080000200C000020404B9B6A03F00303F0
:10340000032B79D070B505460E463C4A136823F06D
:1034100080631360FDF7D0FA0446384B1B6813F045
:10342000006F06D0FDF7C8FA031B022BF5D9032065
:1034300070BD324B9A6A22F47C32296842EA01322A
:103440009A626A68013AC2F30802A968013949021E
:1034500089B20A43E9680139090401F4FE010A430B
:1034600029690139090601F0FE410A439A63DA6AC3
:1034700022F0C00269690A43DA62DA6A22F02002A5
:10348000A9690A43DA62DA6A22F01002DA62DA6BB8
:103490006FF3CF02E96942EAC102DA63DA6A42F005
:1034A0001002DA62C6B91A46DB6A43F40023D3621B
:1034B000124A136843F080631360FDF77DFA0446F7
:1034C0000E4B1B6813F0006F14D1FDF775FA001B4B
:1034D0000228F5D90320ABE7012E05D0074AD36AAD
:1034E00043F40013D362E3E7044AD36A43F480133E
:1034F000D362DDE700209BE70120704700440258BB
:10350000404B9B6A03F00303032B79D070B505464B
:103510000E463C4A136823F080531360FDF74CFAC3
:103520000446384B1B6813F0005F06D0FDF744FAE1
:10353000031B022BF5D9032070BD324B9A6A22F08F
:103540007C72296842EA01529A626A68013AC2F3BF
:103550000802A9680139490289B20A43E9680139B8
:10356000090401F4FE010A4329690139090601F041
:10357000FE410A431A64DA6A22F4406269690A4326
:10358000DA62DA6A22F40072A9690A43DA62DA6A54
:1035900022F48072DA625A6C6FF3CF02E96942EA70
:1035A000C1025A64DA6A42F48072DA62C6B91A4613
:1035B000DB6A43F48003D362124A136843F08053FA
:1035C0001360FDF7F9F904460E4B1B6813F0005F1A
:1035D00014D1FDF7F1F9001B0228F5D90320ABE760
:1035E000012E05D0074AD36A43F08073D362E3E724
:1035F000044AD36A43F40003D362DDE700209BE76B
:103600000120704700440258F8B50446036813F0DF
:10361000006F30D0836EB3F5001F26D00ED8ABB14B
:10362000B3F5801F07D102210830FFF7E5FE0546FC
:1036300095B12E4621E0012635461EE0B3F5401F28
:1036400001D1002508E00126354616E09A4AD36AE2
:1036500043F40033D3620025974A136D23F44013DB
:10366000A16E0B431365002607E002212830FFF707
:1036700047FF0546DCE700263546236813F4807FC4
:1036800014D0A36D042B31D8DFE803F003222908FE
:103690000800894AD36A43F40033D3624DBB864A9B
:1036A000136D23F00703A16D0B431365236813F417
:1036B000007F3FD0E36D802B2ED01FD833B3402B3B
:1036C00019D1002104F10800FFF796FE054629E014
:1036D000002104F10800FFF78FFE0546DEE7002118
:1036E00004F12800FFF70CFF0546D7E70126354611
:1036F000DCE72E46DAE7012635461BE0C02B11D069
:10370000B3F5807F0ED00126354613E06A4AD36AAE
:1037100043F40033D36205E0002104F12800FFF7F1
:10372000EFFE0546DDB9644A136D23F4E073E16DE5
:103730000B431365236813F4806F33D0D4F8A8309B
:10374000B3F5800F1FD00FD8BBB1B3F5001F08D160
:10375000002104F10800FFF74FFE054619E02E4650
:10376000E8E7012635461DE0B3F5C00F11D0B3F5EB
:10377000000F0ED00126354614E04F4AD36A43F4B9
:103780000033D36205E0002104F12800FFF7B8FE02
:103790000546E5B9484A936D23F46003D4F8A810B0
:1037A0000B439365236813F4006F34D0D4F8AC3026
:1037B000B3F1007F1FD00FD8BBB1B3F1807F08D128
:1037C000002104F10800FFF717FE054619E02E4618
:1037D000E8E7012635461EE0B3F1407F11D0B3F192
:1037E000806F0ED00126354615E0334AD36A43F484
:1037F0000033D36205E0002104F12800FFF780FECA
:103800000546002D33D12C4A936D23F0E063D4F8A4
:10381000AC100B439365236813F0007F13D0E36C67
:10382000202B2ED028D833B1102B22D1224AD36A94
:1038300043F40033D3625DBB1F4AD36C23F03003E3
:10384000E16C0B43D364236813F4805F46D0236E8E
:10385000B3F5005F32D020D843B3B3F5805F19D100
:10386000002104F10800FFF7C7FD05462CE02E46B5
:10387000D1E701263546E6E7302BDCD00126354678
:10388000E1E7022104F10800FFF7B6FD0546D2E7A3
:103890002E46D8E70126354620E0B3F5405F13D029
:1038A000B3F5804F10D00126354617E0024AD36A9F
:1038B00043F40033D36207E000440258002104F1CE
:1038C0002800FFF71DFE05463DB9704A136D23F42D
:1038D000E043216E0B43136500E02E46236813F48A
:1038E000005F17D0636EB3F5003F4FD042D843B1AD
:1038F000B3F5803F3BD1012104F10800FFF77CFDC7
:103900000546002D49D1614A136D23F4E023616E11
:103910000B431365236813F4804F19D0D4F8B030EB
:10392000B3F1005F4AD03DD843B1B3F1805F36D1E7
:10393000012104F10800FFF75FFD0546002D44D189
:10394000524A936D23F0E043D4F8B0100B439365D3
:10395000236813F4004F47D0236FB3F1805F36D054
:10396000B3F1005F4BD0BBB3012635463CE00126E6
:103970003546CFE7B3F5802FC3D0B3F5A02FC0D025
:10398000B3F5403FBDD001263546C3E7012104F120
:103990002800FFF7B5FD0546B3E72E46BAE7012636
:1039A0003546D5E7B3F1804FC8D0B3F1A04FC5D0AD
:1039B000B3F1405FC2D001263546C9E7012104F1C9
:1039C0002800FFF79DFD0546B8E72E46C0E72F4AC1
:1039D000D36A43F40033D362C5B92C4A136D23F084
:1039E0004053216F0B431365236813F0807F1CD075
:1039F000A36C032B44D8DFE803F0100B3C1001212B
:103A000004F10800FFF7F8FC0546E5E72E46EBE772
:103A10001E4AD36A43F40033D362A5BB1B4AD36C5E
:103A200023F00303A16C0B43D364236813F4800FCA
:103A30002ED1236813F0010F00F0A680E36F282B2E
:103A400000F2A080DFE803F08E9E9E9E9E9E9E9ECA
:103A5000889E9E9E9E9E9E9E979E9E9E9E9E9E9EA3
:103A60008E9E9E9E9E9E9E9E8E9E9E9E9E9E9E9E96
:103A70008E00022104F10800FFF7BEFC0546CCE7EA
:103A800001263546D1E72E46CFE700BF0044025855
:103A90005A4A136843F480731360FCF78DFF07469E
:103AA000564B1B6813F4807F05D1FCF785FFC01BC4
:103AB0006428F5D90325002D4AD1514B1B6FD4F84A
:103AC000B420534013F4407F0CD04D4B1A6F22F4B6
:103AD0004072196F41F480311967196F21F48031F8
:103AE00019671A67D4F8B430B3F5807F15D08DBB51
:103AF000D4F8B43003F44072B2F5407F1ED0404A8F
:103B0000136923F47C5313613D490B6FD4F8B4203F
:103B1000C2F30B0213430B678BE7FCF74DFF07461D
:103B2000374B1B6F13F0020FE1D1FCF745FFC01BB1
:103B300041F288339842F3D90325D8E73048026927
:103B400022F47C522F4901EA131313430361DBE78C
:103B50002E466EE72E466CE7012104F10800FFF7C0
:103B60004BFC0546E5B9264A536D23F03803E16F57
:103B70000B43536508E0012104F12800FFF7C0FC66
:103B80000546EFE701263546236813F0020F17D0EC
:103B9000A36F052B2CD8DFE803F00B05240B0B0BD0
:103BA0002E46F1E7012104F10800FFF725FC054648
:103BB0000DBB134A536D23F00703A16F0B435365ED
:103BC000236813F0040F30D0D4F89430052B00F2A2
:103BD0000F81DFE813F01F00190006011F001F000E
:103BE0001F00012104F12800FFF78AFC0546DFE7EA
:103BF00001263546E4E72E46E2E700BF00480258BA
:103C000000440258CFFFFF00012104F10800FFF734
:103C1000F3FB0546002D40F0EE80B64A936D23F08D
:103C20000703D4F894100B439365236813F0200F17
:103C30001DD0D4F89030B3F1005F00F0F08000F2B6
:103C4000DF804BB1B3F1805F40F0D780002104F1F9
:103C50000800FFF7D1FB0546002D40F0E780A54A9C
:103C6000536D23F0E043D4F890100B435365236861
:103C700013F0400F1DD0D4F89C30B3F5006F00F066
:103C8000E98000F2D8804BB1B3F5806F40F0D0806E
:103C9000002104F10800FFF7AFFB0546002D40F0BE
:103CA000E080944A936D23F4E053D4F89C100B43C6
:103CB0009365236813F0800F1DD0D4F8A030B3F5BE
:103CC000804F00F0E28000F2D1804BB1B3F5005F8D
:103CD00040F0C980002104F10800FFF78DFB054684
:103CE000002D40F0D980834A936D23F46043D4F8CB
:103CF000A0100B439365236813F0080F0DD0D4F880
:103D00008430B3F5805F00F0C9807A4A536D23F4A4
:103D10004053D4F884100B435365236813F0100FFD
:103D20000DD0D4F89830B3F5807F00F0C180714A8F
:103D3000936D23F44073D4F898100B439365236874
:103D400013F4002F1CD0D4F8A430B3F5803F00F05A
:103D5000B980B3F5003F08D0002B40F0BA800021B5
:103D600004F10800FFF748FB0546002D40F0B48041
:103D7000604A936D23F44033D4F8A4100B43936549
:103D8000236813F4802F1CD0D4F88830B3F5001FBB
:103D900000F0A480B3F5401F08D0B3F5801F40F0B9
:103DA000A480544AD36A43F40033D362002D40F018
:103DB0009F80504A536D23F44013D4F888100B436E
:103DC0005365236813F4803F00F0AC80236D002B13
:103DD00000F09280B3F5803F00F09C8001263546CC
:103DE000A0E0012104F12800FFF78AFB054611E756
:103DF0000126354619E72E4617E70126354636E7F0
:103E0000B3F1804F3FF428AFB3F1A04F3FF424AF9C
:103E1000B3F1405F3FF420AF0126354627E702218A
:103E200004F12800FFF76CFB054615E72E461EE758
:103E3000012635463DE7B3F5805F3FF42FAFB3F57C
:103E4000A05F3FF42BAFB3F5406F3FF427AF0126DF
:103E500035462EE7022104F12800FFF751FB054605
:103E60001CE72E4625E70126354644E7B3F5004F0B
:103E70003FF436AFB3F5204F3FF432AFB3F5C04F48
:103E80003FF42EAF0126354635E7022104F1280024
:103E9000FFF736FB054623E72E462CE7022104F107
:103EA0002800FFF72DFB00283FF42FAF01262CE759
:103EB000022104F12800FFF723FB00283FF437AF6D
:103EC000012634E7022104F12800FFF719FB05461B
:103ED0004BE70126354653E72E4651E7012104F111
:103EE0002800FFF70DFB054660E70126354668E729
:103EF0002E4666E700440258704AD36A43F4003302
:103F0000D36275B96D4AD36C23F48033216D0B43B2
:103F1000D36407E0022104F10800FFF76DFA0546BB
:103F2000EFE72E46236813F0005F11D1236813F4E6
:103F3000003F28D0D4F88030B3F5807F14D010D95A
:103F4000B3F5007F15D0B3F5407F12D001261AE0FB
:103F5000022104F12800FFF7D3FA0028E6D0012659
:103F6000E4E733B101260EE0544AD36A43F4003348
:103F7000D362002D69D1514A536D23F44073D4F8B4
:103F800080100B435365236813F4801F06D04B4AFF
:103F9000136D23F00043616F0B431365236813F027
:103FA000805F07D0454A136923F48043D4F8B810E2
:103FB0000B431361236813F4001F06D03F4A136DAF
:103FC00023F08073E16E0B431365236813F0804F79
:103FD00009D03A4B1A6922F400421A611A69D4F8DE
:103FE000BC100A431A612368002B06DA334AD36CEB
:103FF00023F04053616D0B43D364236813F4000F27
:1040000007D02E4A536D23F44003D4F88C100B4391
:104010005365636813F0010F19D1636813F0020F41
:104020001ED1636813F0040F23D1636813F0080FE7
:1040300028D1636813F0100F2DD1636813F0200F9F
:1040400032D106B101263046F8BD2E469BE700214D
:1040500004F10800FFF7D0F90028DED00646DCE7BF
:10406000012104F10800FFF7C7F90028D9D006465E
:10407000D7E7022104F10800FFF7BEF90028D4D0E9
:104080000646D2E7002104F12800FFF739FA00289C
:10409000CFD00646CDE7012104F12800FFF730FA22
:1040A0000028CAD00646C8E7022104F12800FFF71D
:1040B00027FA0028C5D00126C5E700BF00440258F2
:1040C000F0B4026A036A23F001030362466884695C
:1040D0001E4B23400D681D4322F002028B681343E0
:1040E0001B4A1C4CA04218BF90420CBF0122002268
:1040F0000CD004F58044A04214BF00240124164FC4
:10410000B84203D014B9154CA04205D123F00803DE
:10411000CC68234323F004035AB9114A904214BFD8
:10412000002201220C4CA04203D012B90B4A90424B
:1041300005D126F440764A6932438E6916434660BB
:1041400085614A6842630362F0BC70478CFFFEFFE2
:1041500000000140000401400040014000480140CF
:104160000044014070B4036A026A22F48072026261
:104170004568C4691A4A22400E68164323F4007346
:104180008A6843EA0223174A174CA04218BF90429C
:104190000CBF0122002206D123F40063CC6843EA5D
:1041A000042323F480635AB9104A904214BF0022BA
:1041B00001220F4CA04203D012B90E4A904207D1FF
:1041C00025F440524C6942EA04128C6942EA041513
:1041D0004560C6614A68C263036270BC704700BF35
:1041E0008CFFFEFF0000014000040140004401403C
:1041F000004001400048014070B4036A026A22F4A2
:10420000805202624468C569144A2A400D6842EA35
:10421000052223F400538D6843EA0533104E114DF7
:10422000A84218BFB0420DD005F58045A84214BF82
:104230000025012506F58046B04203D015B90A4D88
:10424000A84204D124F480444D6944EA85144460B2
:10425000C2614A680264036270BC7047FF8CFFFE53
:1042600000000140000401400048014070B4036AAE
:10427000026A22F4803202624268456D144E2E407A
:104280000D682E4323F400338C6843EA0443114D38
:10429000114CA04218BFA8420DD004F58044A042A2
:1042A00014BF0024012405F58045A84203D014B9A9
:1042B0000A4CA04204D122F480324C6942EA042222
:1042C000426046654A688265036270BC704700BF01
:1042D0008FFFFEFF00000140000401400048014044
:1042E00070B4036A026A22F4801202624468456D67
:1042F000144A2A400D6842EA052223F400138D680F
:1043000043EA0553104E114DA84218BFB0420DD0DC
:1043100005F58045A84214BF0025012506F5804615
:10432000B04203D015B90A4DA84204D124F4802428
:104330004D6944EA8524446042654A68C265036267
:1043400070BC7047FF8FFFFE000001400004014079
:104350000048014070B40368394A904214BF0022FB
:104360000122B0F1804F14BF144642F00104ACB9F1
:10437000344DA84214BF00250125334EB0420DD064
:1043800065B905F1804505F58235A84214BF0025C1
:10439000012506F50066B04200D01DB123F0700380
:1043A0004D682B4314BB274CA04214BF00240124AA
:1043B000254DA8421AD0CCB904F1804404F58234CA
:1043C000A04214BF0024012405F50065A8420DD0C9
:1043D00064B91E4CA04214BF0024012405F59A358F
:1043E000A84203D014B91A4CA04203D123F440735D
:1043F000CC68234323F080034C6923438C68C46258
:104400000C688462134CA04208BF42F0010262B9FA
:104410000E4A904214BF0022012204F57054A042BB
:1044200003D012B90A4A904201D10A6902630268B4
:1044300042F00402026001224261036070BC7047D6
:10444000000001400008004000040040004401401A
:10445000004801400004014060B310B5044690F8E4
:104460003D3013B3022384F83D30214651F8040B4C
:10447000FFF770FF012384F8483084F83E3084F859
:104480003F3084F8403084F8413084F8423084F87A
:10449000433084F8443084F8453084F8463084F85A
:1044A000473084F83D30002010BD80F83C30FDF7E7
:1044B000FBFAD7E70120704770B4036A026A22F062
:1044C00010020262456884691A4E26400C6846EA6A
:1044D000042623F020038A6843EA0213164A174C85
:1044E000A04218BF90420CBF0122002206D123F047
:1044F0008003CC6843EA041323F040035AB9104AFE
:10450000904214BF002201220E4CA04203D012B9E7
:104510000D4A904207D125F4406C4A694CEA820C5E
:104520008A694CEA8205456086614A688263036253
:1045300070BC7047FF8CFFFE00000140000401408A
:1045400000440140004001400048014038B590F867
:104550003C30012B00F0958004460D46012380F885
:104560003C30142A00F28880DFE802F00B86868651
:104570001F86868634868686488686865D868686FB
:1045800071000068FFF79CFD2268936943F00803FF
:1045900093612268936923F004039361226893690D
:1045A00029690B439361002067E00068FFF784FFEF
:1045B0002268936943F4006393612268936923F44A
:1045C0008063936122689369296943EA01239361B7
:1045D000002052E00068FFF7C5FD2268D36943F070
:1045E0000803D3612268D36923F00403D3612268EE
:1045F000D36929690B43D36100203EE00068FFF7CF
:10460000FBFD2268D36943F40063D3612268D36958
:1046100023F48063D3612268D369296943EA0123C3
:10462000D361002029E00068FFF720FE2268536D67
:1046300043F0080353652268536D23F00403536568
:104640002268536D29690B435365002015E000680B
:10465000FFF746FE2268536D43F4006353652268FA
:10466000536D23F4806353652268536D296943EACF
:1046700001235365002000E00120002384F83C3032
:1046800038BD0220FCE701F01F014FF0010C0CFACD
:1046900001FC036A23EA0C030362036A8A401343A2
:1046A0000362704710B50446102928D8DFE801F0EE
:1046B000092727270F272727152727271B272727DE
:1046C000210090F83E30013B18BF01231CE090F818
:1046D0003F30013B18BF012316E090F84030013B0A
:1046E00018BF012310E090F84130013B18BF0123AF
:1046F0000AE090F84230013B18BF012304E090F833
:104700004330013B18BF0123002B71D110291ED863
:10471000DFE801F0091D1D1D0D1D1D1D111D1D1DB5
:10472000151D1D1D1900022384F83E3012E00223DE
:1047300084F83F300EE0022384F840300AE0022380
:1047400084F8413006E0022384F8423002E002237C
:1047500084F8433001222068FFF795FF236826493B
:10476000264A934218BF8B420BD002F570529342F7
:1047700007D002F58062934203D002F58062934233
:1047800003D15A6C42F400425A6423681A4AB3F1C6
:10479000804F18BF93421DD0A2F57C42934219D09E
:1047A00002F58062934215D002F58062934211D0E7
:1047B00002F5784293420DD0A2F56C42934209D0A3
:1047C00002F59432934205D01A6842F001021A6051
:1047D00000200EE099680A4A0A40062A18BFB2F57E
:1047E000803F07D01A6842F001021A60002000E002
:1047F000012010BD0020FCE7000001400004014042
:104800000700010090F83C20012A45D070B403460F
:10481000012280F83C20022280F83D200268506886
:1048200094681E4E1E4DAA4218BFB24203D120F416
:1048300070004D68284320F070000D6828435060D8
:104840001A681648B2F1804F18BF824217D0A0F5FF
:104850007C40824213D000F5806082420FD000F588
:10486000806082420BD000F57840824207D0A0F5EC
:104870006C40824203D000F59430824204D124F08F
:104880008004896821439160012283F83D20002043
:1048900083F83C0070BC7047022070470000014064
:1048A00000040140FEE7FEE7FEE7FEE7FEE7704793
:1048B0007047704708B5FCF773F808BD08B50248A3
:1048C000FCF7DCFD08BD00BF1402002008B502485B
:1048D000FDF75FFC08BD00BFB809002082B00023CF
:1048E0000193019B01330193019BB3F1706F15D8C4
:1048F0000369002BF5DA00230193036943F00103F8
:104900000361019B01330193019BB3F1706F08D8E0
:10491000036913F0010FF4D1002000E0032002B07E
:1049200070470320FBE7000084B010B5044603A8DD
:1049300080E80E009DF81130012B1FD1A36B23F4EA
:104940008033A363E2681F4B1340E360E36823F402
:104950004013E3609DF81830012B0AD02046FFF782
:10496000BDFF9DF80E30012B1CD0BDE8104004B0F7
:104970007047E36843F48013E360EFE7E36843F0D4
:104980004003E3602046FFF7A9FF9DF8153023B9E7
:10499000A36B43F48033A363E3E7A36B23F4803377
:1049A000A363DEE7E36D9BB2E365E26D064B134361
:1049B000E365A36843F00603A360A36843F0200304
:1049C000A360D2E7BFFFBDFF0000EE03022A0AD0BA
:1049D0000922C36823F47053C360C36843EA822387
:1049E000C36000207047204B0B44204A934229D9D2
:1049F0001F4B0B441F4A934226D91F4B0B441F4A9F
:104A0000934223D91E4B0B441E4A934220D31E4B84
:104A10000B441E4A93421DD91D4B0B441D4A934221
:104A20001AD31D4B0B441D4A934217D31C4B0B4406
:104A30001C4A934214D31C4B0B441C4A934211D280
:104A40000722C6E70F22C4E70E22C2E70D22C0E705
:104A50000C22BEE70B22BCE70A22BAE70922B8E71C
:104A60000822B6E70622B4E7405327FFFF340C00C4
:104A7000401E1BFF3F420F0000DC0BFF7F4F120068
:104A8000808CF9FE20D6130060B6E5FE5FE31600C9
:104A900000D3CEFE40771B00C05BB3FEC091210067
:104AA00000CA91FE20753800E05459FEE09C410098
:104AB000836843F00103836000207047836823F01C
:104AC000010383600020704782B000230193019BA3
:104AD00001330193019BB3F1706F15D80369002B6B
:104AE000F5DA00230193890141F020010161019B66
:104AF00001330193019BB3F1706F08D8036913F080
:104B0000200FF4D1002000E0032002B07047032002
:104B1000FBE782B000230193019B01330193019BCA
:104B2000B3F1706F13D80369002BF5DA00230193FA
:104B300010230361019B01330193019BB3F1706F5B
:104B400008D8036913F0100FF4D1002000E003200F
:104B500002B070470320FBE7D0F800381943C0F8D3
:104B6000001800207047000084B0F8B5044607A87C
:104B700080E80E00002306E003F1400204EB82020D
:104B80000021516001330E2BF6D99DF8266006BB3B
:104B9000D4F8043843F00203C4F80438A36B23F4B8
:104BA0000013A363236843F040032360236843F0AA
:104BB000800323600023C4F8003E9DF82130012BC0
:104BC00011D19DF81F304BB900212046FFF7C4FFDB
:104BD0000DE0A36B43F40013A363EBE70121204630
:104BE000FFF7BAFF03E003212046FFF7B5FF1021CE
:104BF0002046FFF769FF054600B101252046FFF773
:104C000088FF00B1012504F5006C0023CCF81030BA
:104C1000CCF81430CCF81C300DE04FF09040C2F8C6
:104C2000000902E00020C2F8000900220A614FF6E4
:104C30007F328A6001339DF81C1099420ED904EB33
:104C4000431202F51061D2F800090028EADA002BBD
:104C5000E3D14FF00060C2F80009E6E700230AE064
:104C6000BBB14FF09047C2F8007B002202614FF6C3
:104C70007F3282600133994210D904EB431202F56E
:104C80003060D2F8007B002FEADB0027C2F8007BFF
:104C9000EBE74FF00067C2F8007BE6E7DCF8103086
:104CA00023F48073CCF810300023A3616FF08043AD
:104CB00063619DF81E301BB9A36943F01003A36123
:104CC000A2690B4B1343A3619DF822301BB1A3696A
:104CD00043F00803A361012E04D02846BDE8F84044
:104CE00004B07047A269034B1343A361F5E700BF0B
:104CF00000383C8004000040D0F8083803F0060378
:104D0000022B04D0062B04D02BB9002070470220C0
:104D10007047022070470F207047000010B591F8CF
:104D200000C04B78012B21D000F5006ED0F81C3864
:104D30000CF00F040122A24043EA0243C0F81C38E1
:104D400000EB4C10D0F8003B13F4004F0CD1D0F81E
:104D5000002B8B68C3F30A03097943EA81431A43A2
:104D6000134B1343C0F8003B002010BDD0F81C28A3
:104D70000CF00F0E03FA0EF39BB21343C0F81C386D
:104D800000EB4C10D0F8003913F4004FECD1D0F800
:104D900000298B68C3F30A03097943EA814343EA94
:104DA0008C531A43024B1343C0F80039DCE700BFB1
:104DB0000080001030B40B784A78012A26D000EB2E
:104DC0004313D3F8002B002A52DBD0F83C480A7872
:104DD00002F00F024FF0010C0CFA02F224EA024238
:104DE000C0F83C28D0F81C28097801F00F010CFA13
:104DF00001FC22EA0C42C0F81C28D3F8001B234A0D
:104E00000A40C3F8002B002030BC704700EB43136E
:104E1000D3F80029002A1EDBD0F83C580A7802F0AB
:104E20000F02012404FA02F292B225EA0202C0F84B
:104E30003C28D0F81C28097801F00F018C40A4B25E
:104E400022EA0402C0F81C28D3F80019104A0A40CC
:104E5000C3F80029D7E7D3F8002942F00062C3F86D
:104E60000029D3F8002942F08042C3F80029D3E793
:104E7000D3F8002B42F00062C3F8002BD3F8002BCC
:104E800042F08042C3F8002B9FE700BF0078F3EFA9
:104E9000007833EC10B483B00246002301934878C5
:104EA00001280BD00B7802EB4313D3F8000B00283A
:104EB0002DDB002003B05DF8044B70470B7802EB4C
:104EC0004313D3F80049002C01DB0020F2E7D3F8AC
:104ED000004944F00064C3F800490B7802EB431327
:104EE000D3F8004944F08044C3F80049019B0133E2
:104EF0000193019C42F210739C42DBD80B7802EBC9
:104F00004313D3F80039002BF0DB0020D2E7D3F8AD
:104F1000000B40F00060C3F8000B0B7802EB43136A
:104F2000D3F8000B40F08040C3F8000B019B013325
:104F30000193019842F21073984208D80B7802EB63
:104F40004313D3F8003B002BF0DB0020B2E7012035
:104F5000B0E710B59DF8084084B903334FEA930ECB
:104F60004FF0000C08E000EB023303F5805351F8DA
:104F7000044B1C600CF1010CF445F4D3002010BD6F
:104F8000F0B583B00C784B78012B2DD000EB441C8E
:104F90000CF530631D696FF312051D611D696FF318
:104FA000DC451D61002C40F0CE800C690CB18C6892
:104FB0000C618C680C621D69C4F312042C431C61E3
:104FC0001C6944F400241C61012A00F0DF800B7985
:104FD000012B00F0E180DCF8003B43F00443CCF807
:104FE000003B002003B0F0BD0B6973BB00EB441322
:104FF000D3F810596FF3DC45C3F81059D3F81059A2
:1050000045F40025C3F81059D3F810596FF3120571
:10501000C3F81059012A54D000EB4414D4F80039D5
:1050200043F00443C4F800390B79012B72D00B69AB
:10503000002BD6D0D0F83438097801F00F010122C6
:105040008A401343C0F83438CBE700EB441303F530
:1050500010631D696FF312051D611D696FF3DC4557
:105060001D6184B90E698D68AE4200D90D611D695C
:1050700045F400251D611D690E69C6F3120C45EA51
:105080000C051D61C6E70D698E683544013DB5FB11
:10509000F6F51E691FFA85FC494F07EAC5453543F9
:1050A0001D610D79012DE6D11D6925F0C0451D61F9
:1050B0001D694FEA4C7C0CF0C04C45EA0C051D61A3
:1050C000D9E7CB691BB100EB4412C2F814390B7954
:1050D000012B08D000EB4414D4F8003943F004430A
:1050E000C4F800397DE7D0F8083813F4807F08D180
:1050F00000EB4412D2F8003943F00053C2F80039F3
:10510000E8E700EB4412D2F8003943F08053C2F8CC
:105110000039DFE7D0F8083813F4807F0CD1D4F8D9
:10512000003943F00053C4F8003900920B8A0A7822
:10513000C968FFF70EFF54E7D4F8003943F08053F5
:10514000C4F80039F1E70C6954B91C698D68C5F3DE
:1051500012052C431C611C6944F400241C6133E7D4
:105160008D682C44013CB4FBF5F4A4B204FB05F5B6
:105170000D621D69124E06EAC4442C431C611C6971
:105180000D6AC5F312052C431C611DE7CA68002A8D
:105190003FF41DAF5A611AE7D0F8083813F4807F46
:1051A00006D1DCF8003B43F00053CCF8003B12E79B
:1051B000DCF8003B43F08053CCF8003B0BE700BF2A
:1051C0000000F81F10B5844608464FEA920E02F020
:1051D0000302002305E00CF58051096840F8041B28
:1051E00001337345F7D37AB10CF5805CDCF80040ED
:1051F0000021CBB2DB0024FA03F300F8013B0131BC
:10520000013A92B2002AF4D110BD0B784A78012AF3
:1052100014D000EB4310D0F8002B002A06DB2BB192
:10522000D0F8003B23F08043C0F8003BD0F8003BAF
:1052300043F40013C0F8003B0020704700EB43101C
:10524000D0F80029002A06DB2BB1D0F8003923F072
:105250008043C0F80039D0F8003943F40013C0F897
:105260000039E9E70B784A78012A0ED000EB4310A9
:10527000D0F8003B23F40013C0F8003B0B79023B4D
:10528000DBB2012B15D90020704700EB4310D0F89A
:10529000003923F40013C0F800390B79023BDBB26C
:1052A000012BF0D8D0F8003943F08053C0F8003912
:1052B000E9E7D0F8003B43F08053C0F8003BE2E759
:1052C000D0F8003823F4FE63C0F80038D0F8003876
:1052D000090101F4FE610B43C0F80038002070475B
:1052E000D0F8003E23F00303C0F8003ED0F80438A5
:1052F00023F00203C0F8043800207047D0F8003EC5
:1053000023F00303C0F8003ED0F8043843F0020352
:10531000C0F8043800207047426980691040704727
:10532000D0F8183800F50060C0691840000C7047CC
:10533000D0F8183800F50060C069184080B2704796
:1053400000EB4111D1F8082B00F5006040691040D6
:105350007047D0F81028D0F8343801F00F0C23FA39
:105360000CF3DB01DBB2134300EB411000F51060DE
:10537000806818407047406900F00100704738B5F8
:105380000546C36823F0C043C360012913D019BB8D
:10539000C36843F08043C36000240A20FBF712FB7C
:1053A0000A342846FFF7E7FF08B1C72CF5D9C82C07
:1053B00014D0002038BDC36843F00053C3600024FC
:1053C0000A20FBF7FFFA0A342846FFF7D4FF01282A
:1053D000EDD0C72CF4D9EAE70120EBE70120E9E79B
:1053E000D0F800396FF30A03C0F80039D0F8043858
:1053F00043F48073C0F804380020704710B4046C84
:10540000154B9C4203D9D0F8003B002B16DB00243F
:10541000C0F8104BD0F8104B44F40024C0F8104BE7
:10542000D0F8104B44F01804C0F8104BD0F8104BD3
:1054300044F0C044C0F8104B012903D000205DF8AF
:10544000044B7047C0F8142BD0F8003B43F0802386
:10545000C0F8003BF2E700BF0A30544F10B50346D6
:105460000C4A0D490D48006840B10C4800680344DF
:10547000521A934206D8094A136010BD0748084CD7
:105480000460F2E701F0E2FB0C2303604FF0FF3011
:10549000F3E700BF0000022000040000B802002073
:1054A00028100020314AD2F8883043F47003C2F843
:1054B00088302F4B1B6803F00F03062B06D82C4AAD
:1054C000136823F00F0343F007031360294B1A6896
:1054D00042F001021A6000221A611968264A0A4045
:1054E0001A60234B1B6813F0080F06D0204A13687C
:1054F00023F00F0343F0070313601E4B00229A6151
:10550000DA611A621D4999621D49D9621D49196300
:105510005A639963DA6319645A64196821F4802123
:1055200019601A66184B1B686FF30F03B3F1005F25
:1055300003D2164B0122C3F808210E4BD3F8D43006
:1055400013F4805F10D10B4BD3F8D42042F4805277
:10555000C3F8D4200E4A43F2D2011160D3F8D4200C
:1055600022F48052C3F8D420704700BF00ED00E061
:1055700000200052004402587FEDF6EA00020202C9
:105580000000FF01800201010010005C008000515A
:1055900000400052054AD36843F00203D360034B36
:1055A0005B6813F4005FFAD0704700BF00480258F0
:1055B00008B500221049114800F04EFC80B910498E
:1055C0000E4800F060FC70B90E490C4800F03BFA40
:1055D00060B90A4800F077FC58B9FDF745F908BDF5
:1055E000FAF72AFFEBE7FAF727FFEDE7FAF724FFD0
:1055F000EFE7FAF721FFF0E7E0000020BC0200200F
:10560000540000209800002010B5D0F8D43203F1E7
:10561000B00250F822408CB100EB820043687BB1AD
:1056200094F80002FF280DD09B6894F801222146CF
:105630009847FF2384F80032002010BD0320FCE7C8
:105640000020FAE70020F8E70A23038000487047AB
:105650008C000020F8B506460F4F8221384600F036
:10566000E5FD05460121384600F0E0FD04468121B4
:10567000384600F0DBFD0DB11022AA711CB14022AA
:1056800022710022627118B140220271002242711F
:10569000432333800048F8BD10000020F8B50646CB
:1056A0000F4F8221384600F0C1FD054601213846E2
:1056B00000F0BCFD04468121384600F0B7FD0DB175
:1056C0001022AA711CB1402222710022627118B10D
:1056D0004022027100224271432333800048F8BD0A
:1056E00010000020F8B506460F4F8221384600F022
:1056F0009DFD05460121384600F098FD04468121B4
:10570000384600F093FD0DB11022AA711CB10022A1
:1057100022710222627118B10022027102224271CA
:10572000432333800048F8BD1000002038B5D0F87E
:10573000D432B03350F8235095B1044600F034FB16
:10574000C5F80C02D4F8D432B03304EB8304636898
:10575000DB6805F50371D5F804029847002038BDD1
:105760000320FCE738B5D0F8C852D0F8D432B033B3
:1057700050F8234084B301F00F0303EB830200EBE6
:10578000820292694AB103EBC30C05EB8C05ED690B
:10579000B2FBF5FC05FB1C2292B10023C4F81432C5
:1057A000D0F8D432B03300EB830043681B69ABB14F
:1057B0000A4604F50471D4F808029847002038BD61
:1057C00003EB830300EB830300249C612346224602
:1057D00000F032FB2046F2E70320F0E70020EEE77E
:1057E000F0B583B0D0F8D43203F1B00250F8227093
:1057F00000228DF80720ADF80420002F78D0044651
:105800000D46097811F0600634D0202E69D1EA885F
:105810002AB311F0800F0ED16B7887F80032EA8836
:105820003F2A1AD8D2B287F801223946204601F021
:1058300076F9002659E0B03300EB83035B689B6880
:10584000394668789847EA88072A28BF07223946E8
:10585000204601F04FF9002647E04022E3E7B0334D
:1058600000EB83035B689B680022294668789847B1
:1058700000263AE06F780B2F2ED8DFE807F00636C7
:105880002D2D2D2D2D2D2D2D152490F89C32032BF3
:1058900004D0294600F007FD032626E0022201A9D4
:1058A00001F028F93E4620E090F89C32032B04D00A
:1058B000294600F0F8FC032617E001220DF107014C
:1058C00001F018F911E090F89C32032B0DD0294615
:1058D00000F0E9FC032608E0294600F0E4FC03267A
:1058E00003E0294600F0DFFC0326304603B0F0BD9C
:1058F0000326FAE738B50446812100F07DFA002539
:1059000025870121204600F077FAA4F878518221FA
:10591000204600F071FAA4F84C50A4F84E50D4F888
:10592000D43203F1B00254F822209AB1B03304EB20
:1059300083035B685B689847D4F8D432B03354F87B
:10594000230000F03BFAD4F8D432B03344F82350AB
:10595000C4F8BC52002038BD70B504464FF407703F
:1059600000F028FA002849D005464FF407720021BC
:1059700001F064F9D4F8D432B03344F82350C4F8B9
:10598000BC52237C002B41D14FF4007302228121B1
:10599000204600F026FA012626874FF400730222E3
:1059A0003146204600F01DFAA4F878611023A4F8CF
:1059B0004E30082303228221204600F012FA0123F0
:1059C000A4F84C300026C5F80462D4F8D432B033C1
:1059D00004EB83035B681B689847C5F81462C5F83D
:1059E0001862D5F8042262B3257C1DBB4FF4007306
:1059F0000121204600F028FA284670BDD4F8D432A0
:105A0000B033002244F823200225F5E74023022288
:105A10008121204600F0E5F9012626874023022255
:105A20003146204600F0DDF9A4F878611023A4F88F
:105A30004E30BEE740230121204600F005FA002544
:105A4000DAE70225D8E739B1D0F8D432B03300EB29
:105A5000830041600020704703207047D0F8D432A3
:105A6000B03350F823302BB1C3F80812C3F810221A
:105A70000020704703207047D0F8D432B03350F87C
:105A800023301BB1C3F80412002070470320704775
:105A900008B5D0F8D432B03350F823208AB1D2F808
:105AA00014320BB1012008BD0123C2F81432D2F820
:105AB0001032C362D2F80822812100F0BDF9002023
:105AC000F1E70320EFE710B5D0F8D432B03350F847
:105AD000232092B1047C44B94FF40073D2F804221D
